{
    "contractName": "CoffeShop",
    "abi": [
        {
            "inputs": [
                {
                    "internalType": "address",
                    "name": "_evvmAddress",
                    "type": "address"
                }
            ],
            "stateMutability": "nonpayable",
            "type": "constructor"
        },
        {
            "inputs": [],
            "name": "InvalidSignature",
            "type": "error"
        },
        {
            "inputs": [
                {
                    "internalType": "address",
                    "name": "",
                    "type": "address"
                },
                {
                    "internalType": "uint256",
                    "name": "",
                    "type": "uint256"
                }
            ],
            "name": "checkAsyncNonce",
            "outputs": [
                {
                    "internalType": "bool",
                    "name": "",
                    "type": "bool"
                }
            ],
            "stateMutability": "view",
            "type": "function"
        },
        {
            "inputs": [
                {
                    "internalType": "address",
                    "name": "clientAddress",
                    "type": "address"
                },
                {
                    "internalType": "string",
                    "name": "coffeeType",
                    "type": "string"
                },
                {
                    "internalType": "uint256",
                    "name": "quantity",
                    "type": "uint256"
                },
                {
                    "internalType": "uint256",
                    "name": "totalPrice",
                    "type": "uint256"
                },
                {
                    "internalType": "uint256",
                    "name": "nonce",
                    "type": "uint256"
                },
                {
                    "internalType": "bytes",
                    "name": "signature",
                    "type": "bytes"
                },
                {
                    "internalType": "uint256",
                    "name": "priorityFee_EVVM",
                    "type": "uint256"
                },
                {
                    "internalType": "uint256",
                    "name": "nonce_EVVM",
                    "type": "uint256"
                },
                {
                    "internalType": "bool",
                    "name": "priorityFlag_EVVM",
                    "type": "bool"
                },
                {
                    "internalType": "bytes",
                    "name": "signature_EVVM",
                    "type": "bytes"
                }
            ],
            "name": "orderCoffee",
            "outputs": [],
            "stateMutability": "nonpayable",
            "type": "function"
        }
    ],
    "bytecode": "608034606f57601f61088438819003918201601f19168301916001600160401b03831184841017607357808492602094604052833981010312606f57516001600160a01b03811690819003606f575f80546001600160a01b0319169190911790556040516107fc90816100888239f35b5f80fd5b634e487b7160e01b5f52604160045260245ffdfe60806040526004361015610011575f80fd5b5f3560e01c806395e7ee961461003457639f00cdac1461002f575f80fd5b61019b565b346100d6576101403660031901126100d65761004e6100da565b60243567ffffffffffffffff81116100d65761006e903690600401610147565b9060443560643560843560a43567ffffffffffffffff81116100d657610098903690600401610147565b60c4359160e435936100a861018b565b95610124359867ffffffffffffffff8a116100d6576100ce6100d49a3690600401610147565b9861031c565b005b5f80fd5b600435906001600160a01b03821682036100d657565b634e487b7160e01b5f52604160045260245ffd5b90601f8019910116810190811067ffffffffffffffff82111761012657604052565b6100f0565b67ffffffffffffffff811161012657601f01601f191660200190565b81601f820112156100d6576020813591016101618261012b565b9261016f6040519485610104565b828452828201116100d657815f92602092838601378301015290565b610104359081151582036100d657565b346100d65760403660031901126100d6576101b46100da565b6024359060018060a01b03165f52600160205260405f20905f52602052602060ff60405f2054166040519015158152f35b908160209103126100d6575190565b6040513d5f823e3d90fd5b805191908290602001825e015f815290565b9061023994936001610239610255958261023961024796826040519c8d9a60208c01906101ff565b600b60fa1b815201906101ff565b03601f198101845283610104565b565b60405190610266604083610104565b600b82526a6f72646572436f6666656560a81b6020830152565b5f9103126100d657565b805180835260209291819084018484015e5f828201840152601f01601f1916010190565b6001600160a01b0391821681529181166020830152610140604083018190525f9083018190526060830152608082019290925260a081019290925260c082019290925291151560e083015290911661010082015261016061012082018190526103199291019061028a565b90565b979893909195949561034661033a61033a5f5460018060a01b031690565b6001600160a01b031690565b9660405191630be428a960e11b83526020836004818c5afa928315610410576103b7956103b39561038c6103868f976103a4955f91610424575b50610485565b94610485565b61039e6103988b610485565b92610485565b92610211565b906103ad610257565b906105db565b1590565b61041557833b156100d6576103eb5f96928793604051998a9889978896632e9621cb60e01b88523094309060048a016102ae565b03925af18015610410576103fc5750565b8061040a5f61025593610104565b80610280565b6101f4565b638baa579f60e01b5f5260045ffd5b610446915060203d60201161044c575b61043e8183610104565b8101906101e5565b5f610380565b503d610434565b9061045d8261012b565b61046a6040519182610104565b828152809261047b601f199161012b565b0190602036910137565b805f9172184f03e93ff9f4daa797ed6e38ed64bf6a1f0160401b8210156105b8575b806d04ee2d6d415b85acef8100000000600a92101561059c575b662386f26fc10000811015610587575b6305f5e100811015610575575b612710811015610565575b6064811015610556575b101561054b575b610536602161050b60018501610453565b938401015b5f1901916f181899199a1a9b1b9c1cb0b131b232b360811b600a82061a8353600a900490565b8015610546576105369091610510565b505090565b6001909101906104fa565b600290606490049301926104f3565b60049061271090049301926104e9565b6008906305f5e10090049301926104de565b601090662386f26fc1000090049301926104d1565b6020906d04ee2d6d415b85acef810000000090049301926104c1565b506040915072184f03e93ff9f4daa797ed6e38ed64bf6a1f0160401b81046104a7565b6105fc61023993600161023961060a958260405198899760208901906101ff565b03601f198101835282610104565b6105fc61065c61061a8351610485565b9260405192839161065660208401967f19457468657265756d205369676e6564204d6573736167653a0a0000000000008852603a8501906101ff565b906101ff565b519020604182510361070f57815f916020809401519160606040820151910151841a92601b84106106f8575b906106cc916106a660ff8616601b81149081156106ed575b5061077a565b604051948594859094939260ff6060936080840197845216602083015260408201520152565b838052039060015afa15610410575f516001600160a01b0390811691161490565b601c9150145f6106a0565b92906107066106cc92610754565b93909150610688565b60405162461bcd60e51b815260206004820152601860248201527f496e76616c6964207369676e6174757265206c656e67746800000000000000006044820152606490fd5b60ff601b9116019060ff821161076657565b634e487b7160e01b5f52601160045260245ffd5b1561078157565b60405162461bcd60e51b815260206004820152601760248201527f496e76616c6964207369676e61747572652076616c75650000000000000000006044820152606490fdfea26469706673582212200540b421ccc66c951b7247c7f9d0b40835ab8604d90f14cbcaeea2561a4086c864736f6c634300081e0033",
    "sourcePath": "/home/jistro/work/EVVM/Hackathon-CoffeShop-Example/contracts/src/CoffeShop.sol",
    "compiler": {
        "name": "solc",
        "version": "0.8.30+commit.73712a01"
    },
    "functionHashes": {
        "checkAsyncNonce(address,uint256)": "9f00cdac",
        "orderCoffee(address,string,uint256,uint256,uint256,bytes,uint256,uint256,bool,bytes)": "95e7ee96"
    },
    "gasEstimates": {
        "creation": {
            "codeDepositCost": "408800",
            "executionCost": "infinite",
            "totalCost": "infinite"
        },
        "external": {
            "checkAsyncNonce(address,uint256)": "2511",
            "orderCoffee(address,string,uint256,uint256,uint256,bytes,uint256,uint256,bool,bytes)": "infinite"
        }
    }
}